:100000008316FF2390008312F428DF1B0F2883132D
:100010005F1883170008840A0319DF0A08000030FC
:100020008A000408840A8207003454346534733427
:10003000743420345034613474347434653472341C
:100040006E342034663472346F346D34203450345E
:100050004934433431343234463436343734353429
:060060000D340A340034E7
:1001E8008301512B8312A4002408A02108000A309F
:1001F8008312A0000030A1002708A301A307260846
:10020800A201A2075C2183122008303EA900280819
:100218008400290883138000280A840080012808A4
:1002280015290800242983122F08DF002E088400CE
:100238000520F62001308312AE070318AF0A2429DF
:1002480083122F08DF002E08840005200038031DC4
:100258002E292F2917293029080083123208023A3B
:10026800031D3729382949293108A901A907300868
:10027800A801A8073430B3003308AA0081228312EA
:10028800AE000030AF0016215B2983123108A701A8
:10029800A7073008A601A6073430B3003308A80022
:1002A800FB208312AE000030AF0016215B29080046
:1002B8008312210820040319622963299829A501BA
:1002C800A50A722901300310A00DA10DFF3E031DE0
:1002D80067290130A4002408A5077229A11F7529E0
:1002E800762966297829782921082302031D7E2981
:1002F80020082202031C8129822989292008A202B8
:100308002108031CA303A302892901300310A10CAF
:10031800A00CFF3E031D8A290130A502031D952963
:1003280096297829982998292308A101A107220844
:10033800A001A0079F2908008312A1008510123090
:10034800A000A00BA52900008312A201A301003080
:100358002302083003192202031CB329B429B62941
:10036800DC29DC292108A000220ABC290310A00CE2
:10037800FF3E031DBA29201CC229C329C52985149B
:10038800C7298510C7291230A000A00BC929000071
:1003980001308312A2070318A30A0030A307003014
:1003A8002302083003192202031CDB29DC29B629A1
:1003B80085141230A000A00BDF290000033083123F
:1003C800A000A00BE529080000308312AC00003023
:1003D800AB000030AA000030A900F229201CF52942
:1003E800F6290E2A2408A907250803110318013E37
:1003F8000319FF29AA07260803110318013E031948
:10040800062AAB07270803110318013E03190D2A12
:10041800AC070E2A0130A8000310A40DA50DA60DE7
:10042800A70DA80B102A01300310A30CA20CA10CD5
:10043800A00CFF3E031D182A2308220421042004CF
:10044800031D272A282AF229292A2C08A3002B0869
:10045800A2002A08A1002908A000322A0800831255
:10046800A501A6012108200403193B2A3C2A792A60
:10047800A701A70A4B2A01300310A00DA10DFF3ECA
:10048800031D402A0130A4002408A7074B2AA11FF6
:100498004E2A4F2A3F2A512A512A01300310A50D0E
:1004A800A60DFF3E031D522A21082302031D5E2AC2
:1004B80020082202031C612A622A6A2A2008A20252
:1004C8002108031CA303A30225146A2A0130031080
:1004D800A10CA00CFF3E031D6B2A0130A702031DCF
:1004E800762A772A512A792A792A2608A101A1078A
:1004F8002508A001A007802A08008312AD012D0855
:10050800803A7E3E031C892A8A2A8C2AA22AA22A99
:100518002030AB002D082A07AC002C0884002B08DB
:10052800831380000130AB002B08AD072D08803AFB
:100538007E3E031CA02AA12A8C2AA22A0230AB00E4
:100548002B08AD00A72AFF30AB002B08AD070A30F7
:10055800A0000030A1002908A301A3072808A201D0
:10056800A2075C2183122008303EAB002D082A0721
:10057800AC002C0884002B08831380000A30A000EC
:100588000030A1002908A301A3072808A201A20797
:10059800332283122108A901A9072008A801A80766
:1005A80029082804031DD92ADA2AA72ADB2A2A08B7
:1005B800023E8400831380012A08E22A08000030E2
:1005C8008312B9000030B8000030B7000030B60020
:1005D80030082F042E042D040319F32AF42A472B7C
:1005E800BA01BA0A052B0130B5000310AD0DAE0DE6
:1005F800AF0DB00DB50BF92A0130B5003508BA07B3
:10060800052BB01F082B092BF72A0B2B0B2B0130BE
:10061800B5000310B60DB70DB80DB90DB50B0D2B00
:1006280030083402031D222B2F083302031D222B0E
:100638002E083202031D222B2D083102031C252B04
:10064800262B362B2D08B1022E08031C2E0FB202C2
:100658002F08031C2F0FB3023008031C300FB402FD
:100668003614362B01300310B00CAF0CAE0CAD0CA9
:10067800FF3E031D372B0130BA02031D442B452BC7
:100688000B2B472B472B3908B0003808AF00370829
:10069800AE003608AD00502B0800183083168500D0
:1006A800073083129900183083169F008B0183123C
:1006B800850185140330C1008A30C0005630BF0060
:1006C800BF0B642BC00B642BC10B642B6B2B8D30C1
:1006D80083129F000630BF00BF0B702B00008312EF
:1006E8009F14762B9F18792B7A2B762B7B2B1E0841
:1006F800C701C70783161E088312C601C6079F01D4
:1007080005140030B0000030AF000330AE00FF30F9
:10071800AD004608A0004708A100A201A3010030CF
:10072800A7000030A6000130A500F430A400E8219D
:1007380083122308B4002208B3002108B20020085D
:10074800B100E32283122E08C701C7072D08C6018E
:10075800C6070A30A0000030A1004708A301A3077C
:100768004608A201A207332283122108C301C30746
:100778002008C201C2074308B101B1074208B0010D
:10078800B0070230BF003F08B20031212E30F620FA
:100798000A308312A0000030A1004708A301A30774
:1007A8004608A201A2075C2183122108C501C507DA
:1007B8002008C401C4074508B101B1074408B001C5
:1007C800B007B201B20A31211C308312AE0080306A
:1007D800AF001621831205100630C1001330C00087
:1007E800B130BF00BF0BF62BC00BF62BC10BF62B9D
:0607F800FD2B6B2B002815
:02400E008431FB
:00000001FF
