:040000000128F42FB0
:1007380024001614882508002400161588250800AA
:10074800F60076085F250800F7007708A42308005C
:10075800F0007008240091008825080080302400EB
:10076800940009309200283095000800F1009C237D
:100778004030AC237108AC23A0230800F800F20134
:10078800F20A7808803818242130F700F70BCA2BB2
:100798000800F201F20A013018240330F8009730FB
:1007A800F700F70BD52BF80BD52B00320800F1001A
:1007B800F0013A3071020318E72B30307102031C44
:1007C800E72BF001F00A700C080024000C1421003B
:1007D8000C140630F2001330F100B130F000F00BC9
:1007E800F32BF10BF32BF20BF32B00320800F4017F
:1007F800F501701C032C7208F4077308F53D0130ED
:10080800F235F30D890B042C0130F136F00C890B0D
:10081800092C71087004031DFD2B7508F101F107FF
:100828007408F001F0070800F5007508F3000430BB
:10083800F336890B1C2C73080F39F4007408F60082
:1008480076081038BA2300327608EF39BA23003216
:1008580072080319080075080F39F3007308F600C9
:1008680076081038BA2300327608EF39BA230032F6
:1008780008002000D301D401D101D2010030520276
:100888000830031951020318702C0C1C492C0D3028
:10089800F000F00B4D2C20000C1C632C0130F000F4
:1008A8000030F1005103FF3A073E890A5D2CF0350C
:1008B800F10D890B5B2C7008D3047108D4040C1853
:1008C800632C0130D1070030D23D0030520208308D
:1008D80003195102031C492C53080800F501F601BD
:1008E800710870040319A12CF701F70AF11B862C73
:1008F8000130F035F10D890B7D2C0130F4007408BE
:10090800F7077A2C0130F535F60D890B872C71081D
:100918007302031D912C70087202031C982C700836
:10092800F2027108F33B75140130F136F00C890BB3
:10093800992C0130F702031D862C7608F101F10786
:100948007508F001F00708003430F800F130F700BE
:10095800F70BAC2CF80BAC2C0032F2013030182419
:100968000730F8007D30F700F70BB82CF80BB82CDF
:10097800F201303018244230F700F70BC12C000088
:10098800F201303018242130F700F70BC92CF2019E
:10099800203018242130F700F70BD02CF201F20A8E
:1009A800283018242130F700F70BD82CF201F20A6E
:1009B800083018242130F700F70BE02CF201F20A76
:1009C800013018240330F8009730F700F70BEA2CB1
:1009D800F80BEA2C0032F201F20A06301824213012
:1009E800F700F70BF52CF201F20A0C30182421302D
:1009F800F700F70BFD2C08000134003410340034E4
:100A0800003401340034103425343034323458344E
:100A18002C3425343034323458342C3425343034A2
:100A2800323458342C3425343034323458342C345D
:100A3800253430343234583400344434483454344F
:100A480031343134203469346E346934743469345F
:100A580061346C3469347A34653420342E342E345D
:100A68002E34003430343134323433343434353481
:100A780036343734383439344134423443344434E6
:100A88004534463400342E342E342E342E342E344D
:100A98002E342E34003444346134743461342034B8
:100AA8004E3447340034443461347434613420346F
:100AB8004F344B340034F4007408F2000430F2363A
:100AC800890B632D72080F394038F3007308F5005D
:100AD80075081038BA2300327508EF39BA23003286
:100AE80074080F394038F2007208F500750810389C
:100AF800BA2300327508EF39BA2300321030F200F9
:100B0800F20B842D00000800240016081F39031971
:100B18001419882D0800FD0021000C1020000C106D
:100B28002130F3007630F200F20B982DF30B982D5C
:100B3800000021000C140630F200F20BA12D000079
:100B48009630F2007208FC0020000C18B22D00321A
:100B58000130FC02031DA82D003008009630F20079
:100B68007208FC0020000C1CC02D00320130FC0271
:100B7800031DB62D003008003D24F2007D088600D4
:100B88008701720881003D24F2007D0A86008701F2
:100B9800720881003D24F2007D08023E860087012C
:100BA800720881003D24F2007D08033E860087011B
:100BB800720881003D24F2007D08043E860087010A
:100BC800720881007D08033E860087010108F20053
:100BD800F3017D08023E860087010108F400F50153
:100BE8007D0A860087017D088400850100080107C9
:100BF800F600F701F70D74087607F8007508773DD9
:100C0800F90072087807FA007308793DFB007D083F
:100C1800043E8600870101087A067B040319162E14
:100C280000300800013008006A30210099002E3099
:100C38008C0022009D171D1523008C0120008C01BB
:100C4800B2232100951306302000BB003B08240086
:100C58008C04A8240030C22321302000A000853055
:100C6800A100CC26E9234C308600003087004530AF
:100C780084000030850005302000BB0016001A00F3
:100C8800BB0B422ECD232000CA01CB014B08803A72
:100C9800BB0080303B02031D532E04304A02031868
:100CA8006A2E20004A08453E8600870181010130EE
:100CB800CA070030CB3D4B08803ABB0080303B026E
:100CC800031D682E04304A02031C552E4030C223EF
:100CD80045308F25003A0319762E57302000A000A2
:100CE80085307A2E4F302000A0008530A100CC2618
:100CF8000030C22308302000A0008530A10045083C
:100D0800BB00BC013B08A2003C08A3004608BD008C
:100D1800BE013D08A4003E08A5004708BF00C00169
:100D28003F08A6004008A7004808C100C2014108C2
:100D3800A8004208A9004908C300C4014308AA0042
:100D48004408AB00CC260B302000BD002630BC0088
:100D58006630BB00BB0BAE2EBC0BAE2EBD0BAE2E51
:100D680000324030C22347302000A0008530A10067
:100D7800CC2603302000BD008A30BC005630BB00B2
:100D8800BB0BC42EBC0BC42EBD0BC42E0032472E89
:100D98002230F80078082000AD0020002108F90072
:100DA8002008F800A00A0319A10A78088400790825
:100DB80085000008FA007A08B600B608031908008A
:100DC8003608253A0319EB2E3608A823D12E200021
:100DD800B401B501AE01F52E2E150130A007003083
:100DE800A13D20088400210885000008303A031935
:100DF800F02EFE2E20088400210885000008DB2341
:100E0800031C372F2000B401B5010A30F000003070
:100E1800F10020003508F301F3073408F201F20766
:100E2800FB2371082000B501B5077008B401B407A9
:100E380020088400210885000008D03EF800FF3013
:100E480003180030F9007808B4077908B53D013077
:100E5800A0070030A13D2008840021088500000873
:100E6800DB230318092F20002108F9002008F800C7
:100E7800A00A0319A10A78088400790885000008E7
:100E8800B600003A0319F32F583A03194F2F203AA6
:100E980003194F2FD12E20002D0886008701403FCF
:100EA800AF00413FB0000230F8007808AD07B60146
:100EB800B60A3608043A0319802F3608F800F901F3
:100EC800F835F90D0030780784008530793D8500C4
:100ED800003FFA00013FFB007B083002031D762F1C
:100EE8007A082F02031C802F0130F8007808B60713
:100EF8003608043A031D612F3608F800F901F81B7B
:100F0800F9037908803AFA003508803A7A02031D15
:100F18008F2F3408780203189C2F20003608F80019
:100F2800F901F81BF9037808B4027908B53B9F2F3B
:100F38002000B401B5012E1DAD2F35083404031966
:100F4800BC2F3030A823FF302000B407FF30B53D58
:100F5800A12F350834040319BC2F2030A823FF30F3
:100F68002000B407FF30B53D35083404031DB12F08
:100F78003608F8007808B300FF30F8007808200039
:100F8800B3073308FF3A0319D12E3308F800F901E3
:100F9800F835F90D0030780784008530793D8500F3
:100FA800003FF000013FF1003008F301F3072F087C
:100FB800F201F207722470080F39FA007A0820004B
:100FC800AC002C08363E840085300318013E8500AD
:100FD8000008F8007808B6003608A823C02F0800D3
:100FE800CC01CD01CE01CF01D001D101D201D30175
:080FF800D4017E102000182E28
:020000040001F9
:04000E0084C9FFDAC8
:00000001FF
