:040000000128FD2FA7
:10003C00240016143420080024001615342008005F
:10004C00F6007608A9200800F7007708262008009B
:10005C00F0007008240091003420080024001608D9
:10006C001F39031914193428080080302400940017
:10007C0009309200283095000800F1001E20403015
:10008C002E2071082E2022200800F800F201F20A1E
:10009C007808803884202130F700F70B53280800AB
:1000AC00F201F20A013084200330F8009730F70097
:1000BC00F70B5E28F80B5E2800320800F100F00107
:1000CC003A3071020318702830307102031C70280A
:1000DC00F001F00A700C08007808F0007908F100C3
:1000EC00F2018E30FB007B08F300F401DF21700875
:1000FC00F8007108F9007208FA000800F50075089C
:10010C00F3000430F336890B882873080F39F40098
:10011C007408F60076081038432000327608EF3960
:10012C004320003272080319080075080F39F300D8
:10013C007308F60076081038432000327608EF3941
:10014C00432000320800F4007408F2000430F23648
:10015C00890BAD2872080F394038F3007308F5008D
:10016C0075081038432000327508EF3943200032EF
:10017C0074080F394038F2007208F5007508103811
:10018C00432000327508EF39432000321030F20062
:10019C00F20BCE2800000800790878040319F9281E
:1001AC00FD01FD0AF91BE4280130F835F90D890B26
:1001BC00DB280130FC007C08FD07D82879087B027D
:1001CC00031DEA2878087A02031CF0287808FA0242
:1001DC007908FB3B0130F936F80C890BF12801301A
:1001EC00FD02031DE4287B08F901F9077A08F801E0
:1001FC00F8070800013400340A3400346434003445
:10020C00E83403341034273428346D3461347834B2
:10021C00253430343334643420346D3469346E34E2
:10022C002534303433346434293400344434753454
:10023C0073347434203425343034333464347534AA
:10024C0067342F346D34333400347734613469348B
:10025C0074342E342E342E340034F401F501701C19
:10026C003B297208F4077308F53D0130F235F30DA4
:10027C00890B3C290130F136F00C890B41297108AE
:10028C007004031D35297508F101F1077408F0019C
:04029C00F00708005F
:1002A200F501F6017108700403198029F701F70AB4
:1002B200F11B65290130F035F10D890B5C29013004
:1002C200F4007408F70759290130F535F60D890B4A
:1002D200662971087302031D702970087202031CDB
:1002E20077297008F2027108F33B75140130F13678
:1002F200F00C890B78290130F702031D6529760875
:10030200F101F1077508F001F00708003430F80038
:10031200F130F700F70B8B29F80B8B290032F20131
:10032200303084200730F8007D30F700F70B972932
:10033200F80B9729F201303084204230F700F70B96
:10034200A0290000F201303084202130F700F70BA1
:10035200A829F201203084202130F700F70BAF29C1
:10036200F201F20A283084202130F700F70BB72976
:10037200F201F20A083084202130F700F70BBF297E
:10038200F201F20A013084200330F8009730F700BE
:10039200F70BC929F80BC9290032F201F20A06301B
:1003A20084202130F700F70BD429F201F20A0C3035
:1003B20084202130F700F70BDC29080073080319A9
:1003C200E729720871047004031DF8290030F00057
:1003D2000030F1000030F20008000130F50075082D
:1003E200F3070130F236F10CF00C890BF329FE30E1
:1003F20072050319112AEE290130F5007508F30779
:100402000130F007003003180130F1070030031803
:100412000130F2070130F236F10CF00C890B0C2A94
:10042200FF30720503191E2AFD290130F302013043
:10043200F035F10DF20D890B192AF11F162A7318E6
:10044200282AFF30F0057F30F105FF30F205031056
:10045200F30C7308F500F601F7011030F535F60DCF
:10046200F70D890B2F2A7508F0047608F104770836
:10047200F204740803190800F2170800F700F301E8
:10048200F401003074021E300319730203180800CD
:1004920020008C16F501F6010030760204300319B3
:1004A200750203189F2A013021009D000230F100DD
:1004B200F10B592A033021009D009D185E2A1C0869
:1004C200F901F9071B08F801F8079D0100007708F8
:1004D20086008701403FF100413FF2007908720235
:1004E200031D752A7808710203187E2A7708860090
:1004F20087017808C03F7908C13F700886008701EC
:10050200403FF100413FF20072087902031D8B2A3D
:10051200710878020318942A700886008701780807
:10052200C03F7908C13F0130F5070030F63D003089
:100532007602043003197502031C542A20008C121F
:100542000D30F2009730F100F10BA52AF20BA52A2B
:1005520000320130F3070030F43D422A2000300817
:10056200B4003108B5003208B6000310350D360D5F
:10057200B7003708BD00BD08031DC82A0030B3000C
:100582000030B2000030B1000030B0000800300886
:10059200B4003108B5003208B6001730B636B50CD3
:1005A200B40C890BCF2A3408B7003708B800B1174A
:1005B200FF30B005FF30B1050030B2053008B90098
:1005C2003108BA003208BB00BC018E30BD02BD1F2B
:1005D200062B3D08803A8F3E0318F82A0030B300FC
:1005E2000030B2000030B1000030B000080001302D
:1005F200BC36BB0CBA0CB90C890BF92A0130B40019
:100602003408BD0703191F2BF82A18303D02031CBA
:100612001C2B0030B3000030B2000030B1000030BB
:10062200B00008000130B935BA0DBB0DBC0D890B05
:10063200142B0130BD02BD08031D132B380803190A
:100642002D2BB909BA09BB09BC09B90A0319BA0A9F
:100652000319BB0A0319BC0A3C08B3003B08B200E9
:100662003A08B1003908B000080020003308B6008B
:100672003408B7003508B8000310370D380DB9003B
:100682003908BE00BE08031D4D2B0030B0000030FB
:10069200B1000030B20008003008B6003108B700DF
:1006A2003208B8000310370D380DB9003908BF0001
:1006B200BF08031D632B0030B0000030B1000030D2
:1006C200B20008000030BB000030BC000030BD00AA
:1006D20089303F07B6003608BE023308B600340838
:1006E200B7003508B8001030B836B70CB60C890B15
:1006F200752B3608B9003908BF003008B60031083A
:10070200B7003208B8001030B836B70CB60C890BF7
:10071200852B3608B9003908BF068030B600360886
:10072200BF05B417FF30B305FF30B4050030B5057F
:10073200B117FF30B005FF30B1050030B2051830F7
:10074200B6003608BA000130BB35BC0DBD0D890BB1
:10075200A52B32083502031DB42B31083402031DC8
:10076200B42B30083302031CBD2B3008B30231080E
:10077200B43B3208B53B3B140130B335B40DB50D73
:10078200890BBE2B0130BA02031DA42B3B08F000DB
:100792003C08F1003D08F2003E08B6003608F300BE
:1007A2003F08B7003708F400DF2170082000B000CE
:1007B2007108B1007208B200080020002008A600EB
:1007C2002108A7002208A8000310270D280DA90060
:1007D2002908AA00AA08031DF52B0030A00000304A
:1007E200A1000030A20008002308A6002408A700E8
:1007F2002508A8000310270D280DA9002908AF001D
:10080200AF08031D0B2C0030A0000030A100003007
:10081200A20008002F087B3EA6002608AA0720088F
:10082200A6002108A7002208A8001030A836A70CAD
:10083200A60C890B172C2608A9002908AF0023084B
:10084200A6002408A7002508A8001030A836A70C87
:10085200A60C890B272C2608A9002908AF06803090
:10086200A6002608AF05A117A417FF30A305FF3085
:10087200A4050030A5050030AB000030AC0000300C
:10088200AD000730A6002608AE00201C4E2C23081F
:10089200AB072408AC3D2508AD3D0130A236A10CC2
:1008A200A00C890B4F2C0130A335A40DA50D890B8B
:1008B200552C0130AE02031D462C0930A600260835
:1008C200AE00201C6A2C2308AB072408AC3D250887
:1008D200AD3D0130A236A10CA00C890B6B2C01306E
:1008E200AD36AC0CAB0C890B712C0130AE02031D82
:1008F200622C2B08F0002C08F1002D08F2002A08C7
:10090200A6002608F3002F08A7002708F400DF211D
:1009120070082000A0007108A1007208A20008005F
:1009220078082000A0007908A1007A08A20003102C
:10093200210D220DA3002308A6007B08A0007C083D
:10094200A1007D08A2000310210D220DA30023089F
:10095200A50026080319B92C250826020318C02C65
:100962002603FF3A2507A00019302002031CC02CE1
:100972007B08F8007C08F9007D08FA0008002508C9
:1009820003190800260825020318CF2C2503FF3A75
:100992002607A00019302002031808000630A00024
:1009A2002008A400FA1BA417FD1B2417F917FF3017
:1009B200F805FF30F9050030FA05FC17FF30FB059A
:1009C200FF30FC050030FD052508260203180B2D1B
:1009D2000130FB35FC0DFD0D890BEA2C0130A5021F
:1009E200250826060319062D0130A402240807391A
:1009F2000319062DE92C0130FA36F90CF80C890B93
:100A0200FD2C0130A0002008A607260825060319A0
:100A1200302DFC2C260825020318302D0130F83524
:100A2200F90DFA0D890B102D0130A60225082606B4
:100A320003192C2D0130A4022408073903192C2D87
:100A42000F2D0130FD36FC0CFB0C890B232D0130E0
:100A5200A0002008A50726082506031D222DA41F95
:100A6200422DFF30F806FF30F906FF30FA0601305A
:100A7200F807003003180130F9070030031801307D
:100A8200FA07241F542DFF30FB06FF30FC06FF300F
:100A9200FD060130FB07003003180130FC0700306F
:100AA20003180130FD07A4017808FB077908FC3D13
:100AB2007A08FD3DFD1F6F2DFF30FB06FF30FC065F
:100AC200FF30FD060130FB07003003180130FC0740
:100AD200003003180130FD07A401A40A7B08F000CE
:100AE2007C08F1007D08F2002608A0002008F3002F
:100AF2002408A1002108F400DF217008F800710821
:100B0200F9007208FA0008006A30210099000F30DB
:100B12008C00013023008C0020008C0121009D01FB
:100B220090309E003B202100951306302000D60015
:100B3200560824008C04872100304B202B302000E3
:100B4200BE008130BF00B02620008C120630D800D3
:100B52001330D700B130D600D60BAD2DD70BAD2D4B
:100B6200D80BAD2D003256202000E201E301FF3008
:100B7200E400FF30E5000030DF000030E00000302C
:100B8200E1000030D9000030DA000030DB00003034
:100B9200DC000030DD000030DE006430D600560894
:100BA200F00062303F2200302000B0008030B100FF
:100BB2004430B2000030A000A030A1004030A200BA
:100BC2006308F901F9076208F801F807722078084A
:100BD2002000A3007908A4007A08A500DE232000E3
:100BE2002008B3002108B4002208B50036232000F3
:100BF2003008DF003108E0003208E1000030B000C8
:100C02008030B1004430B2000030A000A030A1001A
:100C12004030A2006508F901F9076408F801F807F5
:100C2200722078082000A3007908A4007A08A500A1
:100C3200DE2320002008B3002108B4002208B500FA
:100C4200362320003008D9003108DA003208DB00F0
:100C52007030B000CE30B1003B30B200AE30F800A0
:100C62004730F900BF30FA005F08FB006008FC0063
:100C72006108FD00912478082000B3007908B400CF
:100C82007A08B500362320003008DC003108DD0088
:100C92003208DE0000304B201C302000BE008130C4
:100CA200BF005C08B0005D08B1005E08B200AF2270
:100CB20020003108C101C1073008C001C007B026B9
:100CC20040304B200A302000BE008130BF005F0858
:100CD200A3006008A4006108A5000030A000C8308D
:100CE200A1004230A200DE2320002008B00021082B
:100CF200B1002208B200AF2220003108C101C107B1
:100D02003008C001C0075908A3005A08A4005B08B4
:100D1200A5000030A000C830A1004230A200DE23AE
:100D220020002008B0002108B1002208B200AF2242
:100D320020003108C301C3073008C201C207B02630
:100D420006302000D8001330D700B130D600D60BC1
:100D5200A82ED70BA82ED80BA82E0032B52D4030C6
:100D62002000C4004408C80020003F08C5003E0817
:100D7200C400BE0A0319BF0A44088400450885005E
:100D82000008C6004608D100D1080319080051081E
:100D9200253A0319CF2E51082A20B52E2000CF0163
:100DA200D001CE01D92E4E150130BE070030BF3D15
:100DB2003E0884003F0885000008303A0319D42E0B
:100DC200E22E3E0884003F08850000086420031CD0
:100DD2001B2F2000CF01D0010A30F0000030F100BB
:100DE20020005008F301F3074F08F201F207332104
:100DF20071082000D001D0077008CF01CF073E084C
:100E020084003F0885000008D03EC400FF3003186C
:100E12000030C5004408CF074508D03D0130BE0769
:100E22000030BF3D3E0884003F0885000008642072
:100E32000318ED2E20003F08C5003E08C400BE0A7C
:100E42000319BF0A44088400450885000008D10040
:100E5200003A0319FC2F643A0319332F0D3A031990
:100E6200332FB52E2000480886008701403FCA0074
:100E7200413FCB000230C4004408C807CB1F4A2FB1
:100E82000330C4004408CE04CA09CB09CA0A0319B4
:100E9200CB0AD101D10A5108053A03196F2F510823
:100EA200C400C501C435C50D00304407840081303B
:100EB200453D8500003FC600013FC70047084B0281
:100EC200031D652F46084A02031C6F2F0130C40020
:100ED2004408D1075108053A031D502F50084F040A
:100EE20003197B2F4E08033903197B2FFF30CF07DD
:100EF200FF30D03D5108C400C501C41BC5034508DD
:100F0200803AC6005008803A4602031D8A2F4F08D5
:100F120044020318972F20005108C400C501C41BC6
:100F2200C5034408CF024508D03B9A2F2000CF01C9
:100F3200D0014E1DAF2F4E0803390319A22F2D30B9
:100F42002A20200050084F040319C42F30302A20D1
:100F5200FF302000CF07FF30D03DA32F50084F04B1
:100F62000319BE2F20302A20FF302000CF07FF3088
:100F7200D03D50084F04031DB32F4E080339031907
:100F8200C42F2D302A2020005108C4004408C90073
:100F9200FF302000C4004408C9074908FF3A03197A
:100FA200B52E0A30F8000030F9004908C400C50126
:100FB200C435C50D0030440784008130453D8500AD
:100FC200003FF000013FF1004B08F301F3074A082C
:100FD200F201F20751217108FB01FB077008FA01C7
:100FE200FA07D2207808303E2000C6004608D10019
:0E0FF20051082A20C92F08007E102000852DEE
:020000040001F9
:04000E0084C9FFDAC8
:00000001FF
