:02000000512885
:10000800803120007F08F100911E0B280C284D2814
:1000180023001908F0007008F2007908031D15285C
:1000280017284D284D2872080D3A031D1C281D2835
:100038002028F901F90A4D28F3011F307302031C27
:100048002628272829284D284D287308A03E8600F1
:1000580087018108031D3128322841287208F000E1
:100068007308A03E86008701700881007308013E6E
:10007800A03E8600870181014D280130F0007008FC
:10008800F3071F307302031C4A284B2829284D28E0
:100098004D2871082000FF000900732F6A302100E5
:1000A80099002F308C0022009D171D150130230068
:1000B8008C0020008C018731BA27803121009513EC
:1000C800063024008C0021009D0190309E000330F2
:1000D8002000C8008A30C7005630C600C60B7228F8
:1000E800C70B7228C80B722879288231C122803147
:1000F80009308531BE25803120005308031D85282D
:100108008A288731D02780318A288A28013021001F
:100118009D0003302000C600C60B90280330210044
:100128009D0096289D1899289A2896289B281C088F
:100138002000CE01CE0721001B082000CD01CD07ED
:1001480021009D0100302000AB000030AA000330E0
:10015800A900FF30A8004D08A0004E08A100A20188
:10016800A3010030A7000030A6000130A500F4303C
:10017800A40085318625803120002308AF0022089D
:10018800AE002108AD002008AC0084316024803125
:1001980020002908D001D0072808CF01CF078731D0
:1001A800BA2780318731A0278031853108258031F1
:1001B80040308731AE2780310A30F4000030F50036
:1001C80020005008F701F7074F08F601F6078431B9
:1001D800C224803175082000CA01CA077408C90101
:1001E800C9074A08AC01AC074908AB01AB070230A4
:1001F800C6004608AD008331312380316C30873129
:10020800362780310A30F4000030F500200050080D
:10021800F701F7074F08F601F607853148258031C1
:1002280075082000CC01CC077408CB01CB074C081B
:10023800AC01AC074B08AB01AB07AD01AD0A83318C
:10024800312380318731922780318731E827803107
:1002580020005208031D31293B294E08A301A3079A
:100268004D08A201A2078331FE2380313B292000DB
:10027800D1013C305102031C4229432945298A28CF
:100288008A280630C8001330C700B130C600C60B34
:100298004B29C70B4B29C80B4B2952297908031D39
:1002A80056298D298731EC27803155302000C6002A
:1002B8004608F400A0308531ED25803175087404B6
:1002C800031D672968296F2987311F2780318731E6
:1002D8009227803183295B302000C6004608F4004D
:1002E800A0308531ED25803175087404031D7D2902
:1002F8007E2983298131DE218031832983292000C9
:100308005308031D88298D298731D02780318D29ED
:100318008D2920008C1991299229CF295208031D73
:1003280096299C295308031D9A299C29D201B92989
:10033800D208031DA029A129A7295308031DA5290F
:10034800A729D301B929D208031DAB29AC29B4299F
:10035800D308031DB029B129B429D201D20AB92979
:10036800D301D30AB929B929B9295308031DBD29CD
:10037800C1298731D0278031C5298731EC278031C1
:10038800C5298731BA2780318531082580318731E1
:10039800E8278031CF2901302000C6004608D10760
:1003A8003C305102031CD929DA2945298A288A2890
:1003B8008A2851288731BA2781310130F700003067
:1003C800F80086311B2681312000B500B6013508BA
:1003D800B600B5010030F7000030F80086311B2662
:1003E80081312000B70035083704B8003608B90055
:1003F8000230C0000030C100B22A6630A900863041
:10040800AA008631CC26813120004008013EF70041
:100418000030413DF80086311B2681312000B500AF
:10042800B6013508B600B5014108F801F8074008DB
:10043800F701F70786311B2681312000B700350800
:100448003704BE003608BF000030AB000030AA00F9
:100458000330A900FF30A8003E08A0003F08A10013
:10046800A201A3010030A7000030A6000130A500BA
:10047800F430A40085318625813120002308AF009F
:100488002208AE002108AD002008AC0084316024A9
:10049800813120002908BF01BF072808BE01BE0717
:1004A8000A30F4000030F5003F08F701F7073E086E
:1004B800F601F6078431C224813175082000BB019A
:1004C800BB077408BA01BA073B08A401A4073A0895
:1004D800A301A307A030B5003508A50083319823F0
:1004E80081312000A9000030AA008631CC26813154
:1004F8006C308731362781310A30F4000030F5003E
:1005080020003F08F701F7073E08F601F607853196
:100518004825813175082000BD01BD077408BC015C
:10052800BC073D08A201A2073C08A101A107A03011
:10053800B5003508A3008631902681312000A90036
:100548000030AA008631CC2681318731922781314B
:1005580002302000C0070030C13DB22A41083902EC
:10056800031DB82A400838020318BB2ABC2A012AEE
:10057800BD2A8731E827813108004130F700EE3085
:10058800F600F60BC52AF70BC52A0000383087316C
:100598004D2782310930F600F60BD02AD32A39309C
:1005A80087314D2782310930F600F60BD92ADC2A2B
:1005B800143087314D2782310930F600F60BE22AD4
:1005C800E52A783087314D2782310930F600F60B5D
:1005D800EB2AEE2A523087314D2782310930F60056
:1005E800F60BF42AF72A6C3087314D278231023016
:1005F800F8001E30F700B330F600F60B012BF70BAE
:10060800012BF80B012B082B383087314D2782310D
:100618000930F600F60B0E2B112B0C3087314D27C5
:1006280082310930F600F60B172B1A2B013087316F
:100638004D2782310330F7009730F600F60B222B56
:10064800F70B222B272B063087314D2782310930B3
:10065800F600F60B2D2B302B080020002D08023A4F
:10066800031D372B382B672B2C08A401A4072B0854
:10067800A301A3072F30AE002E08A50083319823CD
:1006880083312000A9000030AA008631E926833191
:1006980020005308031D512B972B2C08A401A407F5
:1006A8002B08A301A3072F30AE002E08A500833125
:1006B800982383312000A9000030AA008631CC2677
:1006C8008331972B972B20002C08A201A2072B0817
:1006D800A101A1072F30AE002E08A3008631902675
:1006E80083312000A9000030AA008631E926833131
:1006F80020005308031D812B972B2C08A201A20769
:100708002B08A101A1072F30AE002E08A3008631C7
:10071800902683312000A9000030AA008631CC261B
:100728008331972B972B08002000A8012808803ACE
:100738007E3E031CA02BA12BA32BB92BB92B203059
:10074800A60028082507A70027088600870126088D
:1007580081000130A6002608A8072808803A7E3EB6
:10076800031CB72BB82BA32BB92B0230A6002608E5
:10077800A800BE2BFF30A6002608A8070A30F40000
:100788000030F5002408F701F7072308F601F607FB
:100798008531482583317408303E2000A60028089A
:1007A8002507A700270886008701260881000A3048
:1007B800F4000030F5002408F701F7072308F601D4
:1007C800F6078431C224833175082000A401A407E8
:1007D8007408A301A30724082304031DF42BF52B95
:1007E800BE2BF62B2508023E8600870181012508CD
:1007F800FD2B08008731BA2783310130F70000301C
:10080800F80086311B2683312000A400A5012408A6
:10081800A500A4010030F7000030F80086311B263F
:10082800833120002407A60025080318250AA700FD
:100838000230A6070030A73D1E302702FF300319FB
:1008480026020318282C292C5C2C2708F601F60709
:100858002608F501F5072208A4002408F7008631C8
:100868006E26833120002608013EF5000030273D22
:10087800F6002308A4002408F70086316E26833189
:100888000030F5000030F60020002608A4002408F7
:10089800F70086316E2683310130F5000030F6000E
:1008A80020002708A4002408F70086316E2683312B
:1008B8008731E8278331080000302000B30000307A
:1008C800B2000030B1000030B0002B082A0429041F
:1008D80028040319702C712CB82CB401B40A802C8C
:1008E8000130A835A90DAA0DAB0D890B752C013067
:1008F800F8007808B407802CAB1F832C842C742C48
:10090800862C862C0130B035B10DB20DB30D890B94
:10091800872C2B082F02031D9B2C2A082E02031D4F
:100928009B2C29082D02031D9B2C28082C02031C34
:100938009E2C9F2CA92C2808AC022908AD3B2A081C
:10094800AE3B2B08AF3B3014A92C0130AB36AA0CB8
:10095800A90CA80C890BAA2C0130B402031DB52CD4
:10096800B62C862CB82CB82C3308AB003208AA0059
:100978003108A9003008A800C12C08002000A001F7
:10098800A101750874040319CA2CCB2C002DA201EF
:10099800A20AD82C0130F435F50D890BCF2C013083
:1009A800F8007808A207D82CF51FDB2CDC2CCE2CFD
:1009B800DE2CDE2C0130A035A10D890BDF2C75084B
:1009C8007702031DE92C74087602031CEC2CED2C2D
:1009D800F32C7408F6027508F73B2014F32C013049
:1009E800F536F40C890BF42C0130A202031DFD2C02
:1009F800FE2CDE2C002D002D2108F501F50720081E
:100A0800F401F407072D080000308731AE2785313F
:100A180047302000A9008630AA008631E9268531B2
:100A280020005308031D192D212D6330A90086309D
:100A3800AA008631E9268531292D69302000A900D0
:100A48008630AA008631E92685314E302000A9007B
:100A58008630AA008631E926853120005208031D18
:100A6800362D3E2D6330A9008630AA008631E9264E
:100A78008531472D69302000A9008630AA008631CB
:100A8800E9268531472D08007508740403194D2D92
:100A98004E2D7E2D2000A001A00A5C2D0130F435DA
:100AA800F50D890B532D0130F8007808A0075C2D4F
:100AB800F51F5F2D602D522D622D622D750877026E
:100AC800031D682D74087602031C6B2D6C2D712D87
:100AD8007408F6027508F73B712D0130F536F40CF1
:100AE800890B722D0130A002031D7B2D7C2D622DF8
:100AF8007E2D7E2D7708F501F5077608F401F407B9
:100B0800852D08000030F7000030F6000030F500B1
:100B18000030F4008F2D2000201C932D942D9D2D46
:100B28002408F4072508F53D2608F63D2708F73D73
:100B38009D2D0130A435A50DA60DA70D890B9E2D61
:100B48000130A336A20CA10CA00C890BA52D2308FB
:100B5800220421042004031DB22DB32D8F2DB42DA2
:100B68007708A3007608A2007508A1007408A00001
:100B7800BD2D0800F40023001E129F11D42D1E1154
:100B880019309B00E22D1E110C309B00E22D1E1522
:100B980019309B00E22D1E150C309B00E22DE22D32
:100BA8007408023A0319C32D063A0319C72D0D3AE2
:100BB8000319CB2D1A3A0319CF2DE22D1D161E133A
:100BC8001D139D179E16F9012100A00111129116FF
:100BD8000800F800F82D0130F6007608F807013013
:100BE800F6007608F407F82D78088600870174085F
:100BF80086310A008531FF3A013E0107F600760882
:100C0800F700F708031D092E0A2E142E780886000F
:100C180087018108031D112E122EEF2D142E142E7C
:100C28007708F400F501F41BF5031A2E0800873144
:100C3800DC278631A2308731C22786317808873190
:100C4800C227863177088731C22786318731D62770
:100C58008631A3308731C227863100308631AE26EF
:100C680086312000A0002008A1008731E2278631C4
:100C780009302000A000A00B3F2E422E20002108A2
:100C8800452E0800003453346534723469343A34DC
:100C98004F34003420344D3465346D343A344F3495
:100CA8000034723465347334653474340034643415
:100CB80075346D34703400340D340A3400344E34D5
:100CC8002034003464342C34003446344634003440
:100CD8002E3400348731DC278631A2308731C22791
:100CE800863176088731C227863175088731C22751
:100CF800863177088731C22786318731E2278631E6
:100D08000D302000A100FB30A000A00B892EA10B04
:100D1800892E8E2E8F2E08000A30F4000030F50040
:100D280020002208F701F7072108F601F6078531A8
:100D3800482586317408303E2000A4002308860028
:100D4800870124088100230A86008701810123087E
:100D5800AD2E0800F50024009615873183278631CB
:100D680024001108F4007408F600873183278631BF
:100D78007508031DC02EC32E24009612C52E24000C
:100D8800961616168731832786317608CB2E0800EB
:100D9800DC2E2000290884002A08850000088731F5
:100DA8006127863101302000A9070030AA3DDC2EDA
:100DB8002000290884002A08850000080038031D3F
:100DC800E62EE72ECD2EE82E0800F92E2000290861
:100DD80084002A08850000088731062786310130FB
:100DE8002000A9070030AA3DF92E20002908840018
:100DF8002A08850000080038031D032F042FEA2E57
:100E0800052F0800F6008731DC2787317C308731D1
:100E1800C227873140308731C2278731760887312A
:100E2800C22787318731E22787310930F500F50B72
:100E38001B2F1E2F08008731BA2787310030F50095
:100E48000030F600F70186316E2687310130F50053
:100E58000030F600F70186316E2687318731E827A2
:100E6800873108002000AB002B08A9008630AA00B3
:100E78008631E926873120005308031D442F4C2F63
:100E88002B08A9008630AA008631CC2687314C2F42
:100E98000800F5008731DC2787317C308731C2278D
:100EA800873100308731C227873175088731C227DB
:100EB80087318731E22787310800F400632F230048
:100EC8009E1C672F682F632F2000111E6C2F6D2F1B
:100ED800632F6E2F740823009A00722F0800F901FF
:100EE800D201A03084000030850020308731CA2725
:100EF80087318731EF278731D30020005228852F8B
:100F0800852F240016081F39031D8B2F8C2F852F42
:100F180014198F2F902F852F912F08002000530828
:100F2800031D972F9F2F6030A9008630AA008631B5
:100F3800CC2687319F2F0800013087314D27873114
:100F48000330F7009730F600F60BA82FF70BA82F01
:100F5800AD2F0800F7007708803887314D27873193
:100F68000930F600F60BB62FB92F080080302400A0
:100F7800940009309200283095000800F4007408A5
:100F8800240091008731832787310800640080019D
:100F98000131890BCB2F00342100A001F9010B1777
:100FA8008B1708002400961487318327873108009F
:100FB800240016148731832787310800240016156A
:100FC80087318327873108000830240095000800FE
:080FD8000B138B130800013418
:020000040001F9
:04000E0084C9FFDAC8
:00000001FF
