:020000040000FA
:020000000528D1
:040002000034003492
:08000800090083161030850089
:10001000831207309900831618309F0083120B1348
:1000200002308500902090209020A401563042207C
:1000300030304220323042200A30422054304220B8
:10004000453042204D304220503042202030422066
:100050002408542020304220A40A8D309F007B20A9
:100060009F149F1831281E08542083161E088312DF
:1000700054200A30422003308500A220023085003F
:100080009C201E28A3000030850080200830A0009E
:1000900000302318023085008020A30CA00B4828D4
:1000A0000230850080200800A500A601A7012508D0
:1000B000A000A00E0F30A0052008093C031C6328F7
:1000C0003030A00766280A30413CA0072008A6006F
:1000D00042202508A0000F30A0052008093C031C81
:1000E00074283030A00777280A30413CA007200848
:1000F000A700422008000830A100A10B7D280800BD
:100100005030A1008328A10B822808003230A000C3
:10011000FA30A1000000A10B8A28A00B8828080053
:100120001430A2008620A20B922808000A30A200F8
:100130008620A20B982808001230A2008620A20B6D
:100140009E2808000230A2008620A20BA4280800E6
:02400E00843FED
:00000001FF
