:040000000128F82FAC
:1003E200F1007108F5210800F00023009E1CF62997
:1003F2002000111EF629700823009A0008007808D0
:10040200F0007908F100F2018E30FB007B08F30066
:10041200F401B4227008F8007108F9007208FA00B9
:100422000800013400340A34003464340034E834FF
:10043200033410342734253464342C3425346434A2
:100442002C34253464342C34253464340D340A3489
:100452000034F00023001E129F113A2A1E11342A82
:100462001E11372A1E151930382A1E150C309B0012
:10047200482A7008023A03192F2A063A0319312A28
:100482000D3A0319332A1A3A0319362A482A1D1635
:100492001E131D139D179E162000EA01E60121007E
:1004A2001112911608007808790403197B2AFD01BC
:1004B200FD0AF91B662A0130F835F90D890B5D2A10
:1004C2000130FC007C08FD075A2A79087B02031DD3
:1004D2006C2A78087A02031C722A7808FA027908D0
:1004E200FB3B0130F936F80C890B732A0130FD020F
:1004F200031D662A7B08F9007A08F8000800F50156
:10050200F601700871040319AF2AF701F70AF11B0B
:10051200942A0130F035F10D890B8B2A0130F40059
:100522007408F707882A0130F535F60D890B952AEC
:1005320071087302031D9F2A70087202031CA62A07
:100542007008F2027108F33B75140130F136F00CB9
:10055200890BA72A0130F702031D942A7608F100BD
:100562007508F000080073080319BC2A72087104A8
:100572007004031DCD2A0030F0000030F10000307D
:10058200F20008000130F5007508F3070130F23679
:10059200F10CF00C890BC82AFE3072050319E62A09
:1005A200C32A0130F5007508F3070130F007003067
:1005B20003180130F107003003180130F20701304F
:1005C200F236F10CF00C890BE12AFF3072050319A7
:1005D200F32AD22A0130F3020130F035F10DF20D87
:1005E200890BEE2AF11BF92A023073020318EB2A57
:1005F2007318012BFF30F0057F30F105FF30F20553
:100602000310F30C7308F500F601F7011030F5350D
:10061200F60DF70D890B082B7508F0047608F10426
:100622007708F204740803190800F2170800200082
:100632004008C4004108C5004208C6000310450D29
:10064200460DC7004708CD004D08031D312B003071
:10065200C3000030C2000030C1000030C0000800FA
:100662004008C4004108C5004208C6001730C6361B
:10067200C50CC40C890B382B4408C7004708C800B6
:10068200C117FF30C005FF30C1050030C205400868
:10069200C9004108CA004208CB00CC018E30CD020D
:1006A200CD1F6F2B4D08803A8F3E0318612B00300F
:1006B200C3000030C2000030C1000030C00008009A
:1006C2000130CC36CB0CCA0CC90C890B622B013021
:1006D200C4004408CD070319882B612B18304D0242
:1006E200031C852B0030C3000030C2000030C10063
:1006F2000030C00008000130C935CA0DCB0DCC0D49
:10070200890B7D2B0130CD024D08031D7C2B48083F
:100712000319962BC909CA09CB09CC09C90A0319BD
:10072200CA0A0319CB0A0319CC0A4C08C3004B08A6
:10073200C2004A08C1004908C0000800200023087E
:10074200A6002408A7002508A8000310270D280DDD
:10075200A9002908AE002E08031DB62B0030A00008
:100762000030A1000030A20008002008A6002108E5
:10077200A7002208A8000310270D280DA9002908A8
:10078200AF002F08031DCC2B0030A0000030A100C9
:100792000030A20008000030AB000030AC00003096
:1007A200AD0089302F07A6002608AE022308A60056
:1007B2002408A7002508A8001030A836A70CA60C0C
:1007C200890BDE2B2608A9002908AF002008A60005
:1007D2002108A7002208A8001030A836A70CA60CF2
:1007E200890BEE2B2608A9002908AF068030A60047
:1007F2002608AF05A417FF30A305FF30A40500307B
:10080200A505A117FF30A005FF30A1050030A20504
:100812001830A6002608AA000130AB35AC0DAD0D8C
:10082200890B0E2C22082502031D1D2C21082402EF
:10083200031D1D2C20082302031C262C2008A302C2
:100842002108A43B2208A53B2B140130A335A40D9B
:10085200A50D890B272C0130AA02031D0D2C2B0894
:10086200F0002C08F1002D08F2002E08A600260840
:10087200F3002F08A7002708F400B4227008200014
:10088200A0007108A1007208A20008002230200016
:10089200AA002A08AE0020002108AB002008AA0006
:1008A200A00A0319A10A2A0884002B08850000085F
:1008B200AC002C08B30033080319080025303306B6
:1008C2000319662C3308F1214C2C2000AF012108BA
:1008D200AB002008AA00A00A0319A10A2A08840072
:1008E2002B0885000008B300003A0319F32C643A80
:1008F20003197F2C0D3A03197F2C4C2C2E088600ED
:100902008701403FB100413FB2000230AA002A08ED
:10091200AE07B21F952C0330AA002A08AF04B10912
:10092200B209B10A0319B20AB301B30A0530330698
:100932000319BA2C3308AA00AB01AA35AB0D123049
:100942002A07840082302B3D8500003FAC00013F26
:10095200AD002D083202031DB02C2C083102031CFD
:10096200BA2C0130AA002A08B30705303306031D4A
:100972009B2C2F0803390319C02C2D30F1212000A4
:100982003308AA002A08B000FF302000AA002A0873
:10099200B007300A03194C2C0A30F8000030F90075
:1009A2003008AA00AB01AA35AB0D12302A07840029
:1009B20082302B3D8500003FF000013FF1003208FC
:1009C200F3003108F20080227108FB007008FA007F
:1009D20054227808303E2000AC002C08B3003308C3
:1009E200F121C52C080020003008B6003108B700FC
:1009F2003208B8000310370D380DB9003908BA00B3
:100A02003A08031D0B2D0030B0000030B100003059
:100A1200B20008003308B6003408B7003508B80041
:100A22000310370D380DB9003908BF003F08031D08
:100A3200212D0030B0000030B1000030B2000800BB
:100A42003F087B3EB6003608BA073008B6003108C8
:100A5200B7003208B8001030B836B70CB60C890BA4
:100A62002D2D3608B9003908BF003308B600340806
:100A7200B7003508B8001030B836B70CB60C890B81
:100A82003D2D3608B9003908BF068030B600360859
:100A9200BF05B117B417FF30B305FF30B4050030FE
:100AA200B5050030BB000030BC000030BD0007308F
:100AB200B6003608BE00301C642D3308BB0734086C
:100AC200BC3D3508BD3D0130B236B10CB00C890BCE
:100AD200652D0130B335B40DB50D890B6B2D013089
:100AE200BE02031D5C2D0930B6003608BE00301C64
:100AF200802D3308BB073408BC3D3508BD3D0130AD
:100B0200B236B10CB00C890B812D0130BD36BC0C54
:100B1200BB0C890B872D0130BE02031D782D3B08CB
:100B2200F0003C08F1003D08F2003A08B600360831
:100B3200F3003F08B7003708F400B4227008200021
:100B4200B0007108B1007208B2000800200020084D
:100B5200A6002108A7002208A8000310270D280DCF
:100B6200A9002908AC002308A6002408A70025082C
:100B7200A8000310270D280DA9002908AB002C0896
:100B82000319CF2D2B082C020318D62D2C03FF3A64
:100B92002B07A60019302602031CD62D2308A0001D
:100BA2002408A1002508A20008002B080319080048
:100BB2002C082B020318E52D2B03FF3A2C07A60065
:100BC20019302602031808000630A6002608AA00DB
:100BD200A21BAA17A51B2A17A117FF30A005FF30D9
:100BE200A1050030A205A417FF30A305FF30A4051C
:100BF2000030A5052B082C020318212E0130A33545
:100C0200A40DA50D890B002E0130AB022B082C067A
:100C120003191C2E0130AA022A08073903191C2EB7
:100C2200FF2D0130A236A10CA00C890B132E01302E
:100C3200A6002608AC072C082B060319462E122EF6
:100C42002C082B020318462E0130A035A10DA20D4F
:100C5200890B262E0130AC022B082C060319422EDA
:100C62000130AA022A0807390319422E252E013023
:100C7200A536A40CA30C890B392E0130A600260838
:100C8200AB072C082B06031D382EAA1F582EFF3047
:100C9200A006FF30A106FF30A2060130A0070030F7
:100CA20003180130A107003003180130A2072A1FE0
:100CB2006A2EFF30A306FF30A406FF30A5060130DE
:100CC200A307003003180130A407003003180130D5
:100CD200A507AA012008A3072108A43D2208A53DD3
:100CE200A51F852EFF30A306FF30A406FF30A50600
:100CF2000130A307003003180130A40700300318A5
:100D02000130A507AA01AA0A2308F0002408F1006D
:100D12002508F2002C08A6002608F3002A08A700DE
:100D22002708F400B42270082000A0007108A10076
:100D32007208A20008006A302100990029308C0054
:100D420022009D171D15013023008C0020008C010C
:100D520021009D0190309E0006302000D00013300B
:100D6200CF00B130CE00CE0BB42ECF0BB42ED00BB1
:100D7200B42E003209302A2221008C122000DD011B
:100D8200DE01FF30DF00FF30E0000030E100003024
:100D9200E2000030E300DB01DC0109305C02C43018
:100DA20003195B020318422F21001D140330200097
:100DB200CE00CE0BDA2E21009D149D18DE2E1C08CB
:100DC2002000E50021001B082000E40021009D0115
:100DD200023020006502013003196402031CF72E61
:100DE2006408003EF800FE30653D032F6409CE0022
:100DF2006509CF00CE0A0319CF0A4E08003EF8005B
:100E020002304F3DF900002278082000A000790846
:100E1200A1007A08A2006108A3006208A400630886
:100E2200A500A72520002008E1002108E2002208F1
:100E3200E30065085E02031D202F64085D020318AB
:100E4200262F6508DE006408DD0060086502031DC8
:100E52002C2F5F0864020318322F6508E000640833
:100E6200DF000330CE00CE0B342F01302000DB0731
:100E72000030DC3D09305C02C43003195B02031C04
:100E8200D52E6108A3006208A4006308A5004030C3
:100E9200A0001C30A1004530A2009F2320002008A2
:100EA200B3002108B4002208B5000030B000403081
:100EB200B1004030B200F42420003008C0003108F4
:100EC200C1003208C200182320004108D80040089F
:100ED200D7006108A3006208A4006308A50040309F
:100EE200A0001C30A1004530A2009F232000200852
:100EF200D1002108D2002208D3005108A3005208D1
:100F0200A4005308A5005F09CE006009CF00CE0AF5
:100F12000319CF0A5D084E07F8005E084F3DF9003D
:100F2200002278082000B3007908B4007A08B500DE
:100F32001230B000A330B1003E30B200F4242000E1
:100F42003008A0003108A1003208A2009F2320002F
:100F52002008D4002108D5002208D6005408B30086
:100F62005508B4005608B5000030B000C830B100D2
:100F72004230B200F42420003008C0003108C10021
:100F82003208C200182320004108DA004008D900C4
:100F92000C151C30A0008230A1006008A3005F087D
:100FA200A2005E08A5005D08A4005808A700570823
:100FB200A6005A08A9005908A800472407302000B3
:100FC200CF007D30CE00CE0BE42FCF0BE42F2000DC
:100FD2000C110830D000AA30CF000830CE00CE0B62
:100FE200F02FCF0BF02FD00BF02F0000BF2E2000E0
:0E0FF200E601E701E801E901EA0120009C2E7A
:020000040001F9
:04000E0084C9FFDAC8
:00000001FF
