:040000000128FD2FA7
:10066C00240016149524080024001615952408005F
:10067C00F6007608A9230800F70077083E23080047
:10068C00F0007008240091009524080080302400AC
:10069C00940009309200283095000800F1003623B0
:1006AC0040304623710846233A230800F800F20133
:1006BC00F20A7808803884232130F700F70B642B7A
:1006CC000800F401F501701C6F2B7208F407730815
:1006DC00F53D0130F235F30D890B702B0130F136FD
:1006EC00F00C890B752B71087004031D692B7508B0
:1006FC00F101F1077408F001F0070800F500750826
:10070C00F3000430F336890B882B73080F39F4008F
:10071C007408F60076081038542300327608EF3946
:10072C005423003272080319080075080F39F300BE
:10073C007308F60076081038542300327608EF3927
:10074C00542300320800F4007408F2000430F2362E
:10075C00890BAD2B72080F394038F3007308F50084
:10076C0075081038542300327508EF3954230032C1
:10077C0074080F394038F2007208F500750810380B
:10078C00542300327508EF39542300321030F20034
:10079C00F20BCE2B00000800710870040319F92B22
:1007AC00F501F50AF11BE42B0130F035F10D890B45
:1007BC00DB2B0130F4007408F507D82B7108730299
:1007CC00031DEA2B70087202031CF02B7008F20256
:1007DC007108F33B0130F136F00C890BF12B013031
:1007EC00F502031DE42B7308F101F1077208F00107
:1007FC00F0070800013400340A3400346434003447
:10080C00E834033410342734253430343134643430
:10081C0025343034313464342E342534303431348E
:10082C006434413420342834253430343134643445
:10083C002E34253430343134643456342934003475
:10084C006D346134783425343034313464342E349E
:10085C002534303431346434563420346D346934B6
:10086C006E3425343034313464342E342534303401
:10087C0031346434563400344134433420344134FC
:10088C006D346D34653474346534723420342E34E4
:10089C002E342E340034FB01FC0177087604031946
:1008AC00802CFD01FD0AF71B652C0130F635F70D88
:1008BC00890B5C2C0130FA007A08FD07592C0130A9
:1008CC00FB35FC0D890B662C77087902031D702C07
:1008DC0076087802031C772C7608F8027708F93B27
:1008EC007B140130F736F60C890B782C0130FD02A5
:1008FC00031D652C7C08F701F7077B08F601F6074A
:10090C000800F100F0013A3071020318932C3030DA
:10091C007102031C932CF001F00A700C08002400E7
:10092C0016081F3903191419952C08003430F800D7
:10093C00F130F700F70BA02CF80BA02C0032F201D1
:10094C00303084230730F8007D30F700F70BAC2CE7
:10095C00F80BAC2CF201303084234230F700F70B4B
:10096C00B52C0000F201303084232130F700F70B56
:10097C00BD2CF201203084232130F700F70BC42C5E
:10098C00F201F20A283084232130F700F70BCC2C2B
:10099C00F201F20A083084232130F700F70BD42C33
:1009AC00F201F20A013084230330F8009730F7008B
:1009BC00F70BDE2CF80BDE2C0032F201F20A0630BB
:1009CC0084232130F700F70BE92CF201F20A0C30EA
:1009DC0084232130F700F70BF12C08002230200083
:1009EC00AC002C08B00020002108AD002008AC00A1
:1009FC00A00A0319A10A2C0884002D088500000800
:100A0C00AE002E08B900B908031908003908253AB8
:100A1C000319132D39084223F92C2000B701B80112
:100A2C00B6011D2D36150130A0070030A13D200860
:100A3C008400210885000008303A0319182D262D52
:100A4C00200884002108850000088724031C5F2DE2
:100A5C002000B701B8010A30F0000030F10020008E
:100A6C003808F301F3073708F201F207672371081E
:100A7C002000B801B8077008B701B7072008840038
:100A8C00210885000008D03EAC00FF300318003070
:100A9C00AD002C08B7072D08B83D0130A007003079
:100AAC00A13D200884002108850000088724031834
:100ABC00312D20002108AD002008AC00A00A03193C
:100ACC00A10A2C0884002D0885000008B900003A02
:100ADC000319402E643A0319772D0D3A0319772D1B
:100AEC00F92C2000300886008701403FB200413FBE
:100AFC00B3000230AC002C08B007B31F8E2D0330AE
:100B0C00AC002C08B604B209B309B20A0319B30A33
:100B1C00B901B90A3908053A0319B32D3908AC00E3
:100B2C00AD01AC35AD0D00302C07840084302D3D6B
:100B3C008500003FAE00013FAF002F083302031DBC
:100B4C00A92D2E083202031CB32D0130AC002C0849
:100B5C00B9073908053A031D942D380837040319D1
:100B6C00BF2D360803390319BF2DFF30B707FF30EF
:100B7C00B83D3908AC00AD01AC1BAD032D08803A73
:100B8C00AE003808803A2E02031DCE2D37082C02F9
:100B9C000318DB2D20003908AC00AD01AC1BAD03F4
:100BAC002C08B7022D08B83BDE2D2000B701B80188
:100BBC00361DF32D360803390319E62D2D3042234B
:100BCC002000380837040319082E30304223FF3038
:100BDC002000B707FF30B83DE72D3808370403195C
:100BEC00022E20304223FF302000B707FF30B83DE3
:100BFC0038083704031DF72D360803390319082E5E
:100C0C002D30422320003908AC002C08B100FF30F5
:100C1C002000AC002C08B1073108FF3A0319F92C5D
:100C2C000A30F0000030F1003108AC00AD01AC35F9
:100C3C00AD0D00302C07840084302D3D8500003F25
:100C4C00F600013FF7003308F901F9073208F80103
:100C5C00F80751247708F301F3077608F201F2073D
:100C6C00D2237008303E2000AE002E08B90039089F
:100C7C0042230D2E08006A30210099002F308C0081
:100C8C0022009D171D15013023008C0020008C01C3
:100C9C0021009D0190309E004C23210095130630BD
:100CAC002000BE003E0824008C049C2400305C23F1
:100CBC0042302000A0008430A100F4242000CE019A
:100CCC00CF01FF30D000FF30D100C201C3010A3088
:100CDC004302F030031942020318BA2E01302100EE
:100CEC009D0003302000BE00BE0B7A2E0330210085
:100CFC009D009D187F2E1C082000CD01CD072100E2
:100D0C001B082000CC01CC0721009D0120004D08C0
:100D1C004F02031D932E4C084E0203189B2E4D08B8
:100D2C00CF01CF074C08CE01CE0751084D02031D51
:100D3C00A12E50084C020318A92E4D08D101D10741
:100D4C004C08D001D0071030BE00BE0BAB2E0000FB
:100D5C0001302000C2070030C33D0A304302F0309E
:100D6C0003194202031C742E00305C23CD30F600B4
:100D7C000030F70020004F08F901F9074E08F80180
:100D8C00F807512477082000C501C5077608C4016F
:100D9C00C4071530F6000030F7004F08F301F307D5
:100DAC004E08F201F207CD30F0000030F100D223F2
:100DBC007108F901F9077008F801F8075124770850
:100DCC002000C701C7077608C601C607CD30F6005C
:100DDC000030F7005108F901F9075008F801F8073D
:100DEC00512477082000C901C9077608C801C80733
:100DFC001530F6000030F7005108F301F3075008E6
:100E0C00F201F207CD30F0000030F100D22371086E
:100E1C00F901F9077008F801F80751247708200048
:100E2C00CB01CB077608CA01CA072630A000843054
:100E3C00A1004508A301A3074408A201A207470883
:100E4C00A501A5074608A401A4074908A701A707FF
:100E5C004808A601A6074B08A901A9074A08A8013A
:100E6C00A807F42440305C23AB30F6000230F700C6
:100E7C0020005009BE005109BF00BE0A0319BF0A69
:100E8C004E083E07F8004F083F3DF9005124770803
:100E9C002000C501C5077608C401C4074430F6001C
:100EAC000030F7005009BE005109BF00BE0A0319FB
:100EBC00BF0A4E083E07F2004F083F3DF300AB302F
:100ECC00F0000230F100D2237108F901F907700823
:100EDC00F801F807512477082000C701C7077608E6
:100EEC00C601C6070730F6000030F7005009BE00F7
:100EFC005109BF00BE0A0319BF0A4E083E07F20093
:100F0C004F083F3DF3004430F0000030F100D22395
:100F1C007108F901F9077008F801F80751247708EE
:100F2C002000C901C9077608C801C807CD30F600F2
:100F3C000030F7005009BE005109BF00BE0A03196A
:100F4C00BF0A4E083E07F8004F083F3DF9005124F8
:100F5C0077082000CB01CB077608CA01CA071530E9
:100F6C00F6000030F7005009BE005109BF00BE0A60
:100F7C000319BF0A4E083E07F2004F083F3DF3002D
:100F8C00CD30F0000030F100D2237108F901F907DF
:100F9C007008F801F807512477082000C101C10737
:100FAC007608C001C0070A30A0008430A1004508B3
:100FBC00A301A3074408A201A2074708A501A5079E
:100FCC004608A401A4074908A701A7074808A601D9
:100FDC00A6074B08A901A9074A08A801A8074108B8
:100FEC00AB01AB074008AA01AA07632E63007E1071
:040FFC002000412E62
:020000040001F9
:04000E0084C9FFDAC8
:00000001FF
