:100000008A158E2E00308A000408840A8207003484
:1000100001340034003400340A3400340034003435
:100020006434003400340034E834033400340034E1
:100030001034273400340034A034863401340034C2
:10004000403442340F3400348034963498340034D1
:100050000034E134F53405340034CA349A343B3486
:1000600001340034003400341034003400340034DF
:1000700000340134003400340034103400340034CF
:1000800000340034013400340034003410340034BF
:1000900000340034003401340034003400341034AF
:1000A0004D3469346E3420342534303432346C3479
:1000B00075342E342534303431346C347534203476
:1000C0004D346134783420342534303432346C3457
:1000D00075342E342534303431346C347534003476
:1000E0000D340A3454346834653472346D346F34EA
:1000F0006D3465347434653472342034733474343C
:1001000061347234743420342E342E342E340D3451
:100110000A3400342534303432346C3475342E349F
:100120002534303431346C347534203464346534DF
:1001300067342D3443342034283425343034343477
:100140005834293400345034493443342034313461
:1001500036344634363439343034203461346E34F5
:10016000643420344C344D3433343534003430343A
:10017000313432343334343435343634373438343B
:100180003934413442344334443445344634003401
:1001900054346834653472346D346F346D3465347E
:0801A00074346534723400343C
:1001AA008312031323082204210420040319DE28DE
:1001BA00DF282929A9010314A90DF1280130A80073
:1001CA000310A00DA10DA20DA30DA80BE528013067
:1001DA00A8002808A907F128A31FF428F528E3286E
:1001EA00F728F72823082702031D052922082602D3
:1001FA00031D052921082502031D052920082402BB
:10020A00031C0829092918292008A4022108031C0B
:10021A00210FA5022208031C220FA6022308031C91
:10022A00230FA702182901300310A30CA20CA10C5A
:10023A00A00CFF3E031D19290130A902031D26291E
:10024A002729F728292929292708A3002608A200EF
:10025A002508A1002408A000322908000030FC006B
:10026A000030FB000030FA000030F9007308720415
:10027A00710470040319422943299729FD010314C3
:10028A00FD0D55290130F8000310F00DF10DF20DA6
:10029A00F30DF80B49290130F8007808FD075529B4
:1002AA00F31F5829592947295B295B290130F8008E
:1002BA000310F90DFA0DFB0DFC0DF80B5D297308FF
:1002CA007702031D722972087602031D72297108CA
:1002DA007502031D722970087402031C7529762998
:1002EA0086297008F4027108031C710FF50272085E
:1002FA00031C720FF6027308031C730FF7027914BA
:10030A00862901300310F30CF20CF10CF00CFF3EBD
:10031A00031D87290130FD02031D942995295B29B4
:10032A00972997297C08F3007B08F2007A08F100E4
:10033A007908F000A029080083120313A901A31F5A
:10034A00A729A829B729A009A109A209A309A00ACE
:10035A000319A10A0319A20A0319A30AA90103147A
:10036A00A90DB729A71FBA29BB29CB29A409A50911
:10037A00A609A709A40A0319A50A0319A60A0319B3
:10038A00A70A0130FD007D08A906CB290030AD007F
:10039A000030AC000030AB000030AA002308220471
:1003AA00210420040319DA29DB292F2AA8010314BE
:1003BA00A80DED290130FD000310A00DA10DA20D1D
:1003CA00A30DFD0BE1290130FD007D08A807ED29E9
:1003DA00A31FF029F129DF29F329F3290130FD00B0
:1003EA000310AA0DAB0DAC0DAD0DFD0BF5292308BD
:1003FA002702031D0A2A22082602031D0A2A2108A7
:10040A002502031D0A2A20082402031C0D2A0E2A8B
:10041A001E2A2008A4022108031C210FA502220873
:10042A00031C220FA6022308031C230FA7022A1467
:10043A001E2A01300310A30CA20CA10CA00CFF3E33
:10044A00031D1F2A0130A802031D2C2A2D2AF32975
:10045A002F2A2F2A2908031D332A3F2AAA09AB0962
:10046A00AC09AD09AA0A0319AB0A0319AC0A0319A4
:10047A00AD0A3F2A2D08A3002C08A2002B08A100D0
:10048A002A08A000482A080083120313C7002A304A
:10049A00BA003A08BF00AD2C4A08253A0319562A71
:1004AA00572A5C2A4A088A1598268A11AD2C831283
:1004BA000313C801C901C6016A2A6A2A461501300E
:1004CA00BA003A08C7076A2A752A470884008A11B7
:1004DA0002208A11303A0319632A752A752A6A2A70
:1004EA00470884008A1102208A118A15C1268A11B6
:1004FA00031C802A812ACB2A83120313C801C9014B
:10050A00862A831203134908F101F1074808F0010A
:10051A00F0070A30F2000030F3008A1548278A11E2
:10052A0083120313470884008A1102208A11700774
:10053A00BA000030031801307107BB003A08D03EF8
:10054A00C8003B080318013EFF3EC9000130BA004B
:10055A003A08C707470884008A1102208A118A15B7
:10056A00C1268A110318BA2ABB2A862ACB2ACB2A81
:10057A00CB2ACB2AC12C4616CB2AC617E62AAD2C83
:10058A00C030BA003A08C604E62AE62A01308312C5
:10059A000313C707FF30470784008A1102208A1114
:1005AA00CA00003A0319C12C583A0319C22A343A2C
:1005BA000319C02A193A0319C52A0D3A0319C22A7E
:1005CA00AD2C461EE92AEA2AFD2A3F088400831335
:1005DA000008C200840A0008C300840A0008C40094
:1005EA00840A0008C5000430BA003A08BF07A02BE5
:1005FA003F08840083130008BA00840A0008BB007D
:10060A003A08C2003B08C300C401C5010230BA005F
:10061A003A08BF07A02BA02BCA010314CA0D4A0827
:10062A000A3A031D192B1A2B1C2BA92BA92B4A0892
:10063A00BA0001300310BA0DFF3E031D1F2B031031
:10064A003A0D013E84008A1102208A11BB008A11E8
:10065A0002208A11BC008A1102208A11BD008A1167
:10066A0002208A11BE003E084502031D462B3D08A2
:10067A004402031D462B3C084302031D462B3B083C
:10068A0042020318492B4A2B4C2BA92BA92B0130C8
:10069A00BA003A08CA074A080A3A031D552B562BCC
:1006AA001C2BA92BA92BCA010314CA0D4A08083A04
:1006BA00031D602B612B632BA92BA92B4A08BA00B7
:1006CA0001300310BA0DFF3E031D662B03103A0DCD
:1006DA00293E84008A1102208A11BB008A11022055
:1006EA008A11BC008A1102208A11BD008A110220D7
:1006FA008A11BE003E084502031D8D2B3D084402A7
:10070A00031D8D2B3C084302031D8D2B3B0842021F
:10071A000318902B912B932BA92BA92B0130BA00EC
:10072A003A08CA074A08083A031D9C2B9D2B632BDB
:10073A00A92BA92BA92B4608C039803A0319582B93
:10074A00403A0319112BA92B4A08BA00BB01BA1B5C
:10075A00BB033B08803ABC004908803A3C02031DAF
:10076A00B82B48083A020318BB2BBC2BCA2B83129E
:10077A0003134A08BA00BB01BA1BBB033A08C802F2
:10078A003B08031CC903C902CF2B83120313C801F8
:10079A00C901CF2B461DD22BD32BEF2B4908480476
:1007AA000319D82BD92B0B2CDA2B30308A15982623
:1007BA008A11FF3083120313C8070318C90AFF30CE
:1007CA00C90749084804031DEB2BEC2BDA2B0B2C29
:1007DA000B2C0B2C490848040319F42BF52B0B2C72
:1007EA00F62B20308A1598268A11FF3083120313BC
:1007FA00C8070318C90AFF30C90749084804031D76
:10080A00072C082CF62B0B2C0B2C0B2C4A08C0009F
:10081A00C101C01BC103992C8B2C0030A3000030EE
:10082A00A2000030A1000A30A0004008BA0001303E
:10083A000310BA0DFF3E031D1D2C03103A0D013E95
:10084A0084008A1102208A11F0008A1102208A117A
:10085A00F1008A1102208A11F2008A1102208A11FB
:10086A00F3004508F7004408F6004308F50042087B
:10087A00F4008A1133218A11730883120313A70023
:10088A007208A6007108A5007008A4008A11D52074
:10089A008A11831203132008303EBB003B08CA00AA
:1008AA00942C4008BA0001300310BA0DFF3E031D14
:1008BA00592C03103A0D293E84008A1102208A110C
:1008CA00F0008A1102208A11F1008A1102208A118D
:1008DA00F2008A1102208A11F3004508F700440841
:1008EA00F6004308F5004208F4008A1133218A1100
:1008FA0070080F39B03E84008A1102208A118312CF
:10090A000313BB003B08CA00942C942C4608C03938
:10091A00803A0319562C403A0319122C942C4A088F
:10092A008A1598268A11992CFF3083120313C0075F
:10093A000318C10AFF30C107FF304106031DA72C67
:10094A00FF304006031DAA2CAB2C8B2CAD2CAD2CF2
:10095A00013083120313C707FF30470784008A1147
:10096A0002208A11BA003A08CA00CA08031DBE2C1E
:10097A00BF2C512AC12CC12C0800603083160313E6
:10098A008F000C3085002030860087010B138312FC
:10099A0003138501860187018312031799019A01BE
:1009AA0004309E009F011030831603139F0003300A
:1009BA0083120313D1008A30D0005630CF00CF0BF8
:1009CA00E42CD00BE42CD10BE42CEB2C8A157227E7
:1009DA008A1100308A1584268A11C1308A1508279F
:1009EA008A1140308A1584268A119C308A15082774
:1009FA008A118A15D6268A1169308A15ED268A1136
:100A0A00063083120313D1001330D000B130CF0067
:100A1A00CF0B0D2DD00B0D2DD10B0D2D142D00301C
:100A2A0083160313B9000030B8000130B700F43060
:100A3A00B6000030BD000030BC000030BB00003002
:100A4A00BA00272D831203138516050CCF00CF0C8D
:100A5A004F0C0139D000D101500883160313A800A6
:100A6A0083120313510883160313A90089308312D2
:100A7A0003139F000330CF00CF0B412D83120313C2
:100A8A009F14472D9F184A2D4B2D472D4C2D831609
:100A9A0003131E0883120313CF00D0011E08D100CE
:100AAA00D2015108D200D1014F0851048316031311
:100ABA00AA00831203135008520483160313AB00CF
:100ACA00003083120313A3000030A2000330A100F8
:100ADA00FF30A000831603132A08F0002B08F10048
:100AEA00F201F3010030F7000030F6000130F500A2
:100AFA00F430F4008A15B6278A1173088312031397
:100B0A00A7007208A6007108A5007008A4008A113F
:100B1A00A1218A1183120313230883160313C10028
:100B2A0083120313220883160313C00083120313CC
:100B3A00210883160313BF008312031320088316A8
:100B4A000313BE0041083D02031DB52D40083C02B7
:100B5A00031DB52D3F083B02031DB52D3E083A0281
:100B6A000318B82DB92DC12D4108BD004008BC009D
:100B7A003F08BB003E08BA0039084102031DCF2DC9
:100B8A0038084002031DCF2D37083F02031DCF2D21
:100B9A0036083E020318D22DD32DDC2D4108B900A8
:100BAA004008B8003F08B7003E08B600DC2D8312A3
:100BBA0003131F108A15B0268A110030F300003083
:100BCA00F2000030F1000A30F000831603134108E6
:100BDA00F7004008F6003F08F5003E08F4008A11C5
:100BEA0033218A11730883160313AF007208AE000B
:100BFA007108AD007008AC00003083120313A30023
:100C0A000030A2000030A1000A30A00083160313AE
:100C1A00410883120313A7008316031340088312A3
:100C2A000313A600831603133F0883120313A500B8
:100C3A00831603133E0883120313A4008A11D520D6
:100C4A008A1183120313230883160313B300831232
:100C5A000313220883160313B20083120313210815
:100C6A0083160313B1008312031320088316031398
:100C7A00B0002F0883120313AD00831603132E0846
:100C8A0083120313AC00831603132D088312031374
:100C9A00AB00831603132C0883120313AA008316CE
:100CAA000313330883120313B100831603133208A4
:100CBA0083120313B000831603133108831203133C
:100CCA00AF0083160313300883120313AE00831692
:100CDA0003132B0883120313B301B30783160313F9
:100CEA002A0883120313B201B20783308A114922F8
:100CFA008A1180308A15ED268A1140308A15842699
:100D0A008A110030F3000030F2000030F1000A309E
:100D1A00F000831603133908F7003808F60037087D
:100D2A00F5003608F4008A1133218A1173088316F4
:100D3A000313AF007208AE007108AD007008AC0072
:100D4A00003083120313A3000030A2000030A10078
:100D5A000A30A00083160313390883120313A7006D
:100D6A0083160313380883120313A600831603138A
:100D7A00370883120313A500831603133608831258
:100D8A000313A4008A11D5208A118312031323089E
:100D9A0083160313B3008312031322088316031363
:100DAA00B20083120313210883160313B1008312BE
:100DBA000313200883160313B0000030F300003039
:100DCA00F2000030F1000A30F0003D08F7003C085C
:100DDA00F6003B08F5003A08F4008A1133218A111B
:100DEA00730883160313A3007208A2007108A100F6
:100DFA007008A000003083120313A3000030A20081
:100E0A000030A1000A30A000831603133D088312A4
:100E1A000313A700831603133C0883120313A600C7
:100E2A00831603133B0883120313A50083160313C7
:100E3A003A0883120313A4008A11D5208A11831257
:100E4A000313230883160313A7008312031322082C
:100E5A0083160313A60083120313210883160313B0
:100E6A00A50083120313200883160313A4002F0876
:100E7A0083120313AD00831603132E088312031380
:100E8A00AC00831603132D0883120313AB008316D9
:100E9A0003132C0883120313AA00831603133308BF
:100EAA0083120313B1008316031332088312031348
:100EBA00B00083160313310883120313AF0083169D
:100ECA000313300883120313AE0083160313230897
:100EDA0083120313B5008316031322088312031324
:100EEA00B40083160313210883120313B300831675
:100EFA000313200883120313B2008316031327086F
:100F0A0083120313B90083160313260883120313EB
:100F1A00B80083160313250883120313B700831638
:100F2A000313240883120313B60049308A11492295
:100F3A008A1180308A15ED268A118316031329082F
:100F4A002804031DA92FAA2FC32F8312031385195F
:100F5A00AF2FB02FC32F831603134108B9004008DF
:100F6A00B8003F08B7003E08B6004108BD00400877
:100F7A00BC003F08BB003E08BA00C32F831285128B
:100F8A0083160313B401B5013508803AFF00803097
:100F9A007F02031DD22F05303402031CD52FD62F12
:100FAA00D82F272D272D063083120313D100133093
:100FBA00D000B130CF00CF0BE02FD00BE02FD10BF8
:100FCA00E02FE72F013083160313B4070318B50A7D
:100FDA000030B5073508803AFF0080307F02031DD4
:100FEA00F82F05303402031CFB2FFC2FD82F272D96
:060FFA00272D8A110028DA
:101CE60064008001840A0406031900340406742E75
:101CF600F30083120313071673088A1526278A151D
:101D06000800F3008312031307127308803E8A1536
:101D160026278A1508008313533084006B308A15F2
:101D260073268A1583018A11C22CF40074088A1559
:101D36007B268A1574088A15A3268A15A22E080002
:101D4600F000A52E831203130C1EAA2EAB2EA52E71
:101D5600AC2E70089900AF2E0800831203130712E9
:101D660001308A1526278A150330F4009730F300D0
:101D7600F30BBB2EF40BBB2EC02E0800F100F001B6
:101D86003A3071020318C82EC92ED32E3030710294
:101D9600031CCE2ECF2ED32EF0010314F00DD32E1E
:101DA600700CD52E080083160313181218119B11F8
:101DB6001930990083120313181683160313181388
:101DC60083120313181398178316031398160C120D
:101DD6008C120800F200FC2E720884008A11022080
:101DE6008A158A15A3268A150130F1007108F207B3
:101DF600FC2E720884008A1102208A150038031D01
:101E0600052F062FEF2E072F0800F4008312031369
:101E160007161A2F740884008A1102208A158A155B
:101E260026278A150130F3007308F4071A2F740861
:101E360084008A1102208A150038031D232F242FBF
:101E46000D2F252F0800F2000D30F000F00B292F82
:101E56007208F00004300310F00CFF3E031D2E2F15
:101E66000F307005F100831203130708F03971046F
:101E76008700071707130F307205F0000708F039BF
:101E860070048700071707130800F401F5014B2FAC
:101E9600701C4E2F4F2F552F7208F4070318F50AA2
:101EA6007308F50701300310F20DF30DFF3E031D15
:101EB600562F01300310F10CF00CFF3E031D5D2F71
:101EC60071087004031D682F692F4B2F6A2F750840
:101ED600F101F1077408F001F007712F0800831271
:101EE60003130712071387121430F6007930F50032
:101EF600F50B7B2FF60B7B2F802F033083120313FA
:101F06008700071707130730F6007D30F500F50B3D
:101F16008A2FF60B8A2F83120313071707134230F3
:101F2600F500F50B942F0000831203130717071310
:101F36004230F500F50B9D2F00000230831203138B
:101F460087000717071328308A1526278A150C30AD
:101F56008A1526278A158A15B0268A1506308A1507
:101F660026278A1508000030FC000030FB000030F0
:101F7600FA000030F900BF2F701CC22FC32FDB2FD1
:101F86007408F907750803110318013E0319CC2FCD
:101F9600FA07760803110318013E0319D32FFB072E
:101FA600770803110318013E0319DA2FFC07DB2F0C
:101FB6000130F8000310F40DF50DF60DF70DF80BD2
:101FC600DD2F01300310F30CF20CF10CF00CFF3E88
:101FD600031DE52F7308720471047004031DF42FAA
:101FE600F52FBF2FF62F7C08F3007B08F2007A0846
:0A1FF600F1007908F000FF2F080049
:02400E00C4FCF0
:00000001FF
